:020000040000FA
:060000000A128A11EE2F26
:100E8E0083160313081488140800831603178901A8
:100E9E00831603138601831203138601080083123F
:100EAE000313080C0139F200F3017208F000730805
:100EBE00F100612F08003F3406345B344F34663442
:100ECE006D347D3407347F346F3477347C34393469
:100EDE005E34793471347E088A007F0882000A12EB
:100EEE008A1172270A128A118000840A04087D066C
:100EFE0003190034FF0A0319FE0A762FF701F801D1
:100F0E000A128A114C270A128A110A128A114727CD
:100F1E000A128A11F601BD2FBD2F0A128A11562709
:100F2E000A128A1170037104031D9E2F9F2FD02F5A
:100F3E00F601F60AD02FD02F0A128A1156270A125E
:100F4E008A1170087104031DAD2FAE2FD02F023001
:100F5E00F4007408F600D02FD02F0130F7070318D5
:100F6E00F80A0030F807F601D02FD02F7608F400DB
:100F7E00F5017508003A0319C52FD02F7408003AF1
:100F8E000319942F013A0319A32F033A0319B42F0F
:100F9E00D02F7808803AFF0080307F02031DD92FB2
:100FAE0010307702031CDC2FDD2FE02FF701F80144
:100FBE00E02FF81FE32FE42FBD2F0930F70000308C
:100FCE00F800BD2FBD2FBD2F0A128A1100288313E2
:100FDE003030FD000730FE006230FF00203084000C
:100FEE000A128A1176270A128A1183010A128A11AD
:020FFE00852F3D
:04400E00D4E0FFFFFC
:00000001FF
