:020000040000FA
:060000000A128A11EE2F26
:100ED400831603130814881408007008203E840045
:100EE4008313000883120313880008008316031772
:100EF40089018316031386018312031386010800F4
:100F040083120313080C0139F200F3017208F00094
:100F14007308F1008D2F08003F3406345B344F34DE
:100F240066346D347D3407347F346F3477347C34E5
:100F340039345E34793471347E088A007F08820043
:100F44000A128A119E270A128A118000840A040850
:100F54007D0603190034FF0A0319FE0AA22FF401C7
:100F6400F5010A128A1178270A128A110A128A11C3
:100F74006A270A128A11BE2F0A128A1182270A12BC
:100F84008A1170037104031DC82FC92FD92F750846
:100F9400F1007408F0000A128A116F270A128A11EC
:100FA4000130F4070318F50A0030F507D92F750846
:100FB400803AFF0080307F02031DE22F103074025C
:100FC400031CE52FE62FBE2FF401F501BE2FBE2F23
:100FD400BE2F0A128A11002883133030FD00073017
:100FE400FE008E30FF00203084000A128A11A227EE
:0C0FF4000A128A1183010A128A11B12F1F
:04400E00D4E0FFFFFC
:00000001FF
